:020000040000fa
:080000000002040000000000f2
:020000040000fa
:040008004c030000a5
:020000040000fa
:04000c004c030000a1
:020000040000fa
:040010004c0300009d
:020000040000fa
:040014004c03000099
:020000040000fa
:040018004c03000095
:020000040000fa
:04001c004c03000091
:020000040000fa
:040020004c0300008d
:020000040000fa
:040024004c03000089
:020000040000fa
:040028004c03000085
:020000040000fa
:04002c004c03000081
:020000040000fa
:040030004c0300007d
:020000040000fa
:040034004c03000079
:020000040000fa
:040038004c03000075
:020000040000fa
:04003c004c03000071
:020000040000fa
:040040004c0300006d
:020000040000fa
:040044005206000060
:020000040000fa
:040048004c03000065
:020000040000fa
:04004c004c03000061
:020000040000fa
:040050004c0300005d
:020000040000fa
:040054004c03000059
:020000040000fa
:040058004c03000055
:020000040000fa
:04005c004c03000051
:020000040000fa
:040060004c0300004d
:020000040000fa
:040064004c03000049
:020000040000fa
:040068004c03000045
:020000040000fa
:04006c004c03000041
:020000040000fa
:040070004c0300003d
:020000040000fa
:040074004c03000039
:020000040000fa
:040078004c03000035
:020000040000fa
:04007c004c03000031
:020000040000fa
:040080004c0300002d
:020000040000fa
:040084004c03000029
:020000040000fa
:040088004c03000025
:020000040000fa
:04008c004c03000021
:020000040000fa
:040090004c0300001d
:020000040000fa
:040094004c03000019
:020000040000fa
:040098004c03000015
:020000040000fa
:04009c004c03000011
:020000040000fa
:0400a0004c0300000d
:020000040000fa
:0400a4004c03000009
:020000040000fa
:0400a8004c03000005
:020000040000fa
:0400ac004c03000001
:020000040000fa
:0400b0004c030000fd
:020000040000fa
:0400b4004c030000f9
:020000040000fa
:0400b8004c030000f5
:020000040000fa
:0400bc004c030000f1
:020000040000fa
:0400c0004c030000ed
:020000040000fa
:0400c4004c030000e9
:020000040000fa
:0400c8004c030000e5
:020000040000fa
:0400cc004c030000e1
:020000040000fa
:0400d0004c030000dd
:020000040000fa
:0400d4004c030000d9
:020000040000fa
:0400d8004c030000d5
:020000040000fa
:0400dc004c030000d1
:020000040000fa
:0400e0004c030000cd
:020000040000fa
:0400e4004c030000c9
:020000040000fa
:0400e8004c030000c5
:020000040000fa
:0400ec004c030000c1
:020000040000fa
:0400f0004c030000bd
:020000040000fa
:0400f4004c030000b9
:020000040000fa
:0400f8004c030000b5
:020000040000fa
:0400fc004c030000b1
:020000040000fa
:040100004c030000ac
:020000040000fa
:040104004c030000a8
:020000040000fa
:040108004c030000a4
:020000040000fa
:04010c004c030000a0
:020000040000fa
:040110004c0300009c
:020000040000fa
:040114004c03000098
:020000040000fa
:040118004c03000094
:020000040000fa
:04011c004c03000090
:020000040000fa
:040120004c0300008c
:020000040000fa
:04012400c80200000d
:020000040000fa
:040128004c03000084
:020000040000fa
:04012c004c03000080
:020000040000fa
:040130004c0300007c
:020000040000fa
:040134004c03000078
:020000040000fa
:040138004c03000074
:020000040000fa
:04013c004c03000070
:020000040000fa
:040140004c0300006c
:020000040000fa
:040144004c03000068
:020000040000fa
:040148004c03000064
:020000040000fa
:04014c004c03000060
:020000040000fa
:040150004c0300005c
:020000040000fa
:040154004c03000058
:020000040000fa
:040158004c03000054
:020000040000fa
:04015c004c03000050
:020000040000fa
:040208004c030000a3
:020000040000fa
:04020c004c0300009f
:020000040000fa
:040210004c0300009b
:020000040000fa
:040214004c03000097
:020000040000fa
:040218004c03000093
:020000040000fa
:04021c004c0300008f
:020000040000fa
:040220004c0300008b
:020000040000fa
:040224004c03000087
:020000040000fa
:040228004c03000083
:020000040000fa
:04022c004c0300007f
:020000040000fa
:040230004c0300007b
:020000040000fa
:040234004c03000077
:020000040000fa
:040238004c03000073
:020000040000fa
:04023c004c0300006f
:020000040000fa
:040240004c0300006b
:020000040000fa
:040244004c03000067
:020000040000fa
:040248004c03000063
:020000040000fa
:04024c004c0300005f
:020000040000fa
:040250004c0300005b
:020000040000fa
:040254004c03000057
:020000040000fa
:040258004c03000053
:020000040000fa
:04025c004c0300004f
:020000040000fa
:040260004c0300004b
:020000040000fa
:040264004c03000047
:020000040000fa
:040268004c03000043
:020000040000fa
:04026c004c0300003f
:020000040000fa
:040270004c0300003b
:020000040000fa
:040274004c03000037
:020000040000fa
:040278004c03000033
:020000040000fa
:04027c004c0300002f
:020000040000fa
:040280004c0300002b
:020000040000fa
:040284004c03000027
:020000040000fa
:040288004c03000023
:020000040000fa
:04028c004c0300001f
:020000040000fa
:040290004c0300001b
:020000040000fa
:040294004c03000017
:020000040000fa
:040298004c03000013
:020000040000fa
:04029c004c0300000f
:020000040000fa
:0402a0004c0300000b
:020000040000fa
:0402a4004c03000007
:020000040000fa
:0402a8004c03000003
:020000040000fa
:0402ac004c030000ff
:020000040000fa
:0402b0004c030000fb
:020000040000fa
:0402b4004c030000f7
:020000040000fa
:0402b8004c030000f3
:020000040000fa
:0402bc004c030000ef
:020000040000fa
:0402c0004c030000eb
:020000040000fa
:0402c4004c030000e7
:020000040000fa
:0402c8004c030000e3
:020000040000fa
:0402cc004c030000df
:020000040000fa
:0402d0004c030000db
:020000040000fa
:0402d4004c030000d7
:020000040000fa
:0402d8004c030000d3
:020000040000fa
:0402dc004c030000cf
:020000040000fa
:0402e0004c030000cb
:020000040000fa
:0402e4004c030000c7
:020000040000fa
:0402e8004c030000c3
:020000040000fa
:0402ec004c030000bf
:020000040000fa
:0402f0004c030000bb
:020000040000fa
:0402f4004c030000b7
:020000040000fa
:0402f8004c030000b3
:020000040000fa
:0402fc004c030000af
:020000040000fa
:040300004c030000aa
:020000040000fa
:040304004c030000a6
:020000040000fa
:040308004c030000a2
:020000040000fa
:04030c004c0300009e
:020000040000fa
:040310004c0300009a
:020000040000fa
:040314004c03000096
:020000040000fa
:040318004c03000092
:020000040000fa
:04031c004c0300008e
:020000040000fa
:040320004c0300008a
:020000040000fa
:040324004c03000086
:020000040000fa
:040328004c03000082
:020000040000fa
:04032c004c0300007e
:020000040000fa
:040330004c0300007a
:020000040000fa
:040334004c03000076
:020000040000fa
:040338004c03000072
:020000040000fa
:04033c004c0300006e
:020000040000fa
:040340004c0300006a
:020000040000fa
:040344004c03000066
:020000040000fa
:040348004c03000062
:020000040000fa
:04034c004c0300005e
:020000040000fa
:040350004c0300005a
:020000040000fa
:040354004c03000056
:020000040000fa
:040358004c03000052
:020000040000fa
:04035c004c0300004e
:020000040000fa
:100400002f8120000ebf20000e0188000000000098
:10041000000020000000e000020032000001200087
:1004200020028800140007009d0007000000e00083
:1004300003003a0020742000010020000200370071
:100440000000200001002000810f70000100320038
:1004500014000700000020000000e000020032004d
:100460000000020000000000500702000000000031
:100470000040da000000fe004440a9000000200017
:100480000000e0000300320000002000a00188000e
:100490004440a800000006008a1f78008b1f7800e7
:1004a0000000060091018800800478000000eb0045
:1004b0001a003700e284440032a0b4009905ba0063
:1004c000e284440032a0b4009906ba00e2844400f9
:1004d00032a0b4000006eb00476fde00fd07b2005b
:1004e000636ce10003003a00ebff07000000eb0043
:1004f0000a003700606ce10004003a00005deb0088
:100500008b05e900fdff3e00040037006168e10053
:10051000010032000086eb000b00070019c7ba008b
:100520001905ba000e04e00003003a000a00e000da
:10053000e0ff3a0000000600fe07b2009e018800be
:100540008a047800f5ff3700395dba008b05e900b1
:100550000c003200295dba008b05e900080032006a
:100560000c00e00003003a00e284440032a0b40032
:10057000f5ff370019ddba008b05e900faff3a00f4
:100580008904e800e184440032a0b40000000600c1
:10059000809fbe00829fbe00841f78003400f80058
:1005a00000002000a00188000000fa0050408000f8
:1005b0006140800014c0b300f2342c00030020001e
:1005c000820f5000838f580001003c000042eb0076
:1005d00061004000e0804800504088006140880091
:1005e0000404e0002400320000352c00010020004b
:1005f0005040880061408800d421ef008be0a800c3
:10060000704080008140800014c0b30082a92300a4
:1006100003002000820f5000838f580001003c002f
:100620000042eb0061004000e0804800704088001c
:10063000814088000404e000110032000e28ef0021
:100640001028ef00501680004800de006140600076
:100650000004a200614060000080fb0061006000b7
:100660004800dd00511680000180a10001007000eb
:100670005016880002003700cb02a9008be0a900c9
:100680000080fa003400f9004f0278004f01be00ec
:100690004f00be00004006000040da000000fe00ef
:1006a00000000500889fbe008a9fbe003004420003
:1006b000b0844a0030054b0090854b006000b100cb
:1006c0000898be000a90be000440e10005c8e100a1
:1006d00006d0e10007d8e1000200310068004000c8
:1006e0001008e8004f05be004f04be0000000600e1
:1006f000889fbe008a9fbe003004be002005be0059
:100700000418540005985c0006185d0007985d0009
:10071000110020000440e10005c8e10006d0e1001e
:1007200007d8e100010039008000eb0010881000bc
:100730004f05be004f04be00000006001200fa0084
:10074000889fbe008a9fbe008c9fbe00e0b79f00be
:10075000f1b79f0082bf9f0093bf9f000605be00b8
:100760000404be000000eb00d0b79f00c0b79f009c
:10077000b0b79f00a0b79f0090b79f000006eb00a6
:100780005fb19700cfb09700820141003fb0970062
:100790000200e00004003d00370007007e805700a3
:1007a000c0ff070003003700330007007e805700ba
:1007b000cfff0700dfb697000d00e0000c0035000a
:1007c0006fb29700ffb297000fbb97009fbb9700d7
:1007d00010002000010020006011b800000272002b
:1007e0008182720002037300838373001b00070081
:1007f0000c06e80001042000810f5600e0ff3a00db
:100800000d00e00004003d000802be000a03be0027
:100810007e805700a3ff07005fa897000000e0005c
:1008200005003a001fb29700afb297003fb39700a0
:10083000cfb39700090007006fb09700ffb0970093
:100840000fb997009fb997004f06be004f05be0035
:100850004f04be000080fa000000060001000700ff
:1008600000000600a4b79f00b5b79f00c6b79f0061
:10087000d7b79f00000006004f09de00828171009b
:10088000b3b79f004f01de0081804000828070007e
:10089000a1b79f008fb097004f09de000000400015
:1008a0000200700090b79f007fa897004f01de0004
:1008b000818040008280700081b79f000d0007009a
:1008c0004f3ade000000400004007000f0af9f00cf
:1008d000080007000402420085824a0006034b001c
:1008e00087834b00dfff07000802be000a03be003b
:1008f000000006002fb29700bfb297004fb39700d9
:10090000dfb3970000000600881f78001800200061
:10091000881f780089ff07008f87e9004f0478005f
:1009200000000600801feb0084ff07008f87e900ae
:1009300000000600889fbe008a9fbe00e00f5000a6
:10094000e08f5800e00f5900e08f59000c003d0087
:100950006044b8006055b8000000540081805c001d
:1009600002015d0083815d00180020001500070072
:1009700008003d00180007000004eb0005003700e8
:100980000004eb000f00070002003d00120007000a
:1009900018002000dcff07000800e000060032001d
:1009a0006022b8006033b8000000520081805a0015
:1009b00002015b0083815b004f05be004f04be0057
:1009c00000000600e00f5200e08f5a00e00f5b00cd
:1009d000e08f5b00000006006044b8006055b8007e
:1009e0000402540085825c0006035d0087835d007d
:1009f00000000600889fbe008a9fbe008c1f780002
:100a0000e00f5000e08f5800e00f5900e08f5900d0
:100a10000d003d006044b8006055b800000054006f
:100a200081805c0002015d0083815d001c0020006c
:100a30000820e10009a8e1000ab0e1000bb8e100dc
:100a40000d003d00080037000006eb00e00f5200eb
:100a5000e08f5a00e00f5b00e08f5b0006003d0076
:100a60006044b8006055b8000402540085825c0000
:100a700006035d0087835d00aaff07000c00e0000d
:100a8000060032006022b8006033b8000000520057
:100a900081805a0002015b0083815b004f06780071
:0c0aa0004f05be004f04be000000060021
:020000040000fa
:100aac000000fa0081088000f0fc2f00008060003c
:100abc000050a000800888000080eb0060088800cf
:100acc000621ef0031058000f0ff28000080600057
:100adc0000d0a0003005880084e0a90094e0a800b4
:100aec0011e1a8000080fa00000006000400fa00e2
:100afc0094e0a80000000000408020003108800035
:100b0c00010878000040800011408000008fbe007a
:100b1c004080200010007800e10f400004003a00f3
:100b2c001e00be0061005000e0805800008fbe0027
:100b3c000e0078001040780006e8b7000e00780030
:100b4c000000e8001040780007e8b7000e007800bd
:100b5c000080e8001040780008e8b7000e0078002c
:100b6c00630040001040780009e8b70094e0a8004a
:100b7c000080fa00000006000000fa00dbff07000e
:100b8c00408020001000be000080fa00000006002b
:100b9c000400fa00d5ff07000e00780051802000f9
:100bac0091407800014878000e0078000000e800c1
:100bbc006180200091407800014878000e00780098
:100bcc000080e80071802000914078000148780096
:100bdc000e00780063004000818020009140780076
:100bec00014878001e00be000080fa0000000600dc
:100bfc000400fa00bdff07000e00780061802000a1
:100c0c0091407800014878000e0078000000e80060
:100c1c007180200091407800014878000e00780027
:100c2c000080e80081802000914078000148780025
:100c3c000e00780063004000918020009140780005
:100c4c00014878001e00be000080fa00000006007b
:100c5c000400fa00008fbe001e02be006033b80014
:100c6c0030072000010020006011b8000000420095
:100c7c0081804a0002014b0083814b00640e2000ee
:100c8c00050020006033b8001cff07000000be0008
:100c9c000080fa0000000600809fbe000000fa00f1
:100cac00004080001140800061004000e08048005e
:100cbc00004088001140880084e0a9000080fa0000
:100ccc004f00be00004006000000fa002c23ef008d
:100cdc00c006200000198800100020003019880080
:100cec002823ef003023ef0030002000201988006b
:100cfc0000302000101988002003a90085a0a9004d
:100d0c0021e3a8000080fa00000006000000fa00b1
:100d1c00c1a1a800010e8000f0f02f00008060003f
:100d2c00000e8800010e800030ff2f000080600054
:100d3c00000e8800010e8000c0ff2f0000806000b4
:100d4c000010a000000e8800d421ef007077200066
:100d5c00400e8800c7e1a900310e80000000280079
:100d6c0000806000300e8800ca21ef000106800070
:100d7c00f0f82f00008060000060a00000068800e2
:100d8c008b20a90070082000800e8800000820002d
:100d9c00900e88008be0a9009be0a80010092400ad
:100dac00a032880055a6a9000028200090328800a7
:100dbc0090328000f000b300903288003136800011
:100dcc00f00f2e00008060000080a00030368800fc
:100ddc00c8e2a90055e6a800c1e1a8000080fa000d
:100dec00000006000000fa0012002000800720001e
:100dfc00a1092000337420008049780081497800d3
:100e0c008249780012002000600420007105200047
:100e1c002374200080497800814978008249780049
:100e2c0000000000113a8000000027008080600064
:100e3c0000002100808f5000faff3a0000000000f3
:100e4c00113a800000022000008060000000e000e9
:100e5c00fbff320040a7a9000080fa00000006004a
:100e6c000000fa00c062a800c042a900c902a90093
:080e7c000080fa0000000600ee
:020000040000fa
:100e8400000800000a000000000000000a0800003a
:0c0e94000800000000000000000000004a
:020000040000fa
:100ea0000000fa00d2ff070081e0a800efff070072
:040eb000ffff370009
:020000040000fa
:0457f8004f790000e5
:020000040000fa
:0457fc007f3d0000ed
:00000001FF
